{
  "abi": [
    {
      "type": "constructor",
      "inputs": [
        {
          "name": "_feeToSetter",
          "type": "address",
          "internalType": "address"
        },
        {
          "name": "_creationFee",
          "type": "uint256",
          "internalType": "uint256"
        },
        {
          "name": "_weth",
          "type": "address",
          "internalType": "contract IWETH"
        },
        {
          "name": "_nfpm",
          "type": "address",
          "internalType": "address"
        },
        {
          "name": "_uFactory",
          "type": "address",
          "internalType": "address"
        },
        {
          "name": "_total_Trade_Volume",
          "type": "uint256",
          "internalType": "uint256"
        }
      ],
      "stateMutability": "nonpayable"
    },
    {
      "type": "receive",
      "stateMutability": "payable"
    },
    {
      "type": "function",
      "name": "CREATION_FEE",
      "inputs": [],
      "outputs": [
        {
          "name": "",
          "type": "uint256",
          "internalType": "uint256"
        }
      ],
      "stateMutability": "view"
    },
    {
      "type": "function",
      "name": "allPairsLength",
      "inputs": [],
      "outputs": [
        {
          "name": "",
          "type": "uint256",
          "internalType": "uint256"
        }
      ],
      "stateMutability": "view"
    },
    {
      "type": "function",
      "name": "createTokensAndPair",
      "inputs": [
        {
          "name": "name",
          "type": "string",
          "internalType": "string"
        },
        {
          "name": "symbol",
          "type": "string",
          "internalType": "string"
        },
        {
          "name": "minExpected",
          "type": "uint256",
          "internalType": "uint256"
        }
      ],
      "outputs": [],
      "stateMutability": "payable"
    },
    {
      "type": "function",
      "name": "feeToSetter",
      "inputs": [],
      "outputs": [
        {
          "name": "",
          "type": "address",
          "internalType": "address"
        }
      ],
      "stateMutability": "view"
    },
    {
      "type": "function",
      "name": "getPumpTokenPair",
      "inputs": [
        {
          "name": "Token",
          "type": "address",
          "internalType": "address"
        }
      ],
      "outputs": [
        {
          "name": "",
          "type": "address",
          "internalType": "address"
        }
      ],
      "stateMutability": "view"
    },
    {
      "type": "function",
      "name": "owner",
      "inputs": [],
      "outputs": [
        {
          "name": "",
          "type": "address",
          "internalType": "address"
        }
      ],
      "stateMutability": "view"
    },
    {
      "type": "function",
      "name": "renounceOwnership",
      "inputs": [],
      "outputs": [],
      "stateMutability": "nonpayable"
    },
    {
      "type": "function",
      "name": "setCreationFeeSetter",
      "inputs": [
        {
          "name": "_feeToSetter",
          "type": "address",
          "internalType": "address"
        }
      ],
      "outputs": [],
      "stateMutability": "nonpayable"
    },
    {
      "type": "function",
      "name": "setCreationFeeTo",
      "inputs": [
        {
          "name": "_feeTo",
          "type": "uint256",
          "internalType": "uint256"
        }
      ],
      "outputs": [],
      "stateMutability": "nonpayable"
    },
    {
      "type": "function",
      "name": "transferOwnership",
      "inputs": [
        {
          "name": "newOwner",
          "type": "address",
          "internalType": "address"
        }
      ],
      "outputs": [],
      "stateMutability": "nonpayable"
    },
    {
      "type": "function",
      "name": "withdrawFees",
      "inputs": [],
      "outputs": [],
      "stateMutability": "nonpayable"
    },
    {
      "type": "event",
      "name": "OwnershipTransferred",
      "inputs": [
        {
          "name": "previousOwner",
          "type": "address",
          "indexed": true,
          "internalType": "address"
        },
        {
          "name": "newOwner",
          "type": "address",
          "indexed": true,
          "internalType": "address"
        }
      ],
      "anonymous": false
    },
    {
      "type": "event",
      "name": "PumpContractFactory__TokensCreated",
      "inputs": [
        {
          "name": "pumpTokenPair",
          "type": "address",
          "indexed": false,
          "internalType": "address"
        },
        {
          "name": "pumpErc20",
          "type": "address",
          "indexed": false,
          "internalType": "address"
        }
      ],
      "anonymous": false
    },
    {
      "type": "error",
      "name": "OwnableInvalidOwner",
      "inputs": [
        {
          "name": "owner",
          "type": "address",
          "internalType": "address"
        }
      ]
    },
    {
      "type": "error",
      "name": "OwnableUnauthorizedAccount",
      "inputs": [
        {
          "name": "account",
          "type": "address",
          "internalType": "address"
        }
      ]
    }
  ],
  "bytecode": {
    "object": "0x6080604052633b9aca0060015534801561001857600080fd5b50604051612bce380380612bce8339810160408190526100379161012c565b338061005d57604051631e4fbdf760e01b81526000600482015260240160405180910390fd5b610066816100c4565b50600294909455600380546001600160a01b039687166001600160a01b03199182161790915560068054948716948216949094179093556007805492861692841692909217909155600880549190941691161790915560095561019f565b600080546001600160a01b038381166001600160a01b0319831681178455604051919092169283917f8be0079c531659141344cd1fd0a4f28419497f9722a3daafe3b4186f6b6457e09190a35050565b6001600160a01b038116811461012957600080fd5b50565b60008060008060008060c0878903121561014557600080fd5b865161015081610114565b60208801516040890151919750955061016881610114565b606088015190945061017981610114565b608088015190935061018a81610114565b8092505060a087015190509295509295509295565b612a20806101ae6000396000f3fe608060405260043610620000ad5760003560e01c80636bdd1264116200006c5780636bdd1264146200018e578063715018a614620001b35780638da5cb5b14620001cb578063be06b1a414620001eb578063ca9991b81462000202578063f2fde38b146200022757600080fd5b8063094b741514620000ba578063476343ee14620000f957806349a2104d1462000113578063574f2ba3146200013a57806361c77972146200015157600080fd5b36620000b557005b600080fd5b348015620000c757600080fd5b50600354620000dc906001600160a01b031681565b6040516001600160a01b0390911681526020015b60405180910390f35b3480156200010657600080fd5b50620001116200024c565b005b3480156200012057600080fd5b506200012b60025481565b604051908152602001620000f0565b3480156200014757600080fd5b506004546200012b565b3480156200015e57600080fd5b50620000dc62000170366004620007c7565b6001600160a01b039081166000908152600560205260409020541690565b3480156200019b57600080fd5b5062000111620001ad366004620007c7565b620002f8565b348015620001c057600080fd5b50620001116200036a565b348015620001d857600080fd5b506000546001600160a01b0316620000dc565b62000111620001fc366004620008a4565b62000382565b3480156200020f57600080fd5b50620001116200022136600462000918565b62000629565b3480156200023457600080fd5b506200011162000246366004620007c7565b6200067e565b62000256620006bf565b600080546040516001600160a01b039091169047908381818185875af1925050503d8060008114620002a5576040519150601f19603f3d011682016040523d82523d6000602084013e620002aa565b606091505b5050905080620002f55760405162461bcd60e51b815260206004820152601160248201527015da5d1a191c985dd85b0819985a5b1959607a1b60448201526064015b60405180910390fd5b50565b6000546001600160a01b03163314620003485760405162461bcd60e51b815260206004820152601160248201527026b7b7b72aa81d102327a92124a22222a760791b6044820152606401620002ec565b600380546001600160a01b0319166001600160a01b0392909216919091179055565b62000374620006bf565b620003806000620006ee565b565b6000600254341015620003d85760405162461bcd60e51b815260206004820152601f60248201527f4e6f7420656e6f7567682065746820666f72206372656174696f6e20666565006044820152606401620002ec565b60008484604051620003ea90620007ab565b620003f792919062000986565b604051809103906000f08015801562000414573d6000803e3d6000fd5b5060065460075460085460095460405194955060009486946001600160a01b03908116948116931691906200044990620007b9565b6001600160a01b039586168152938516602085015291841660408401529092166060820152608081019190915260a001604051809103906000f08015801562000496573d6000803e3d6000fd5b506001600160a01b03838116600090815260056020526040902080546001600160a01b0319169183169190911790559050620004d381836200073e565b83156200059857600254620004e99034620009b8565b92506000816001600160a01b031684866040516024016200050c91815260200190565b60408051601f198184030181529181526020820180516001600160e01b0316636cb504a560e11b17905251620005439190620009e0565b60006040518083038185875af1925050503d806000811462000582576040519150601f19603f3d011682016040523d82523d6000602084013e62000587565b606091505b50509050806200059657600080fd5b505b600480546001810182556000919091527f8a35acfbc15ff81a39ae7d344fd709f28e8600b4aa8c65c6b64bfe7fe36bd19b0180546001600160a01b0319166001600160a01b038381169182179092556040805191825291841660208201527fd8581390461c2076b0e95678137ced4b86a9701e9c19418c7136173ad55aed8d910160405180910390a1505050505050565b6003546001600160a01b03163314620006795760405162461bcd60e51b815260206004820152601160248201527026b7b7b72ab81d102327a92124a22222a760791b6044820152606401620002ec565b600255565b62000688620006bf565b6001600160a01b038116620006b457604051631e4fbdf760e01b815260006004820152602401620002ec565b620002f581620006ee565b6000546001600160a01b03163314620003805760405163118cdaa760e01b8152336004820152602401620002ec565b600080546001600160a01b038381166001600160a01b0319831681178455604051919092169283917f8be0079c531659141344cd1fd0a4f28419497f9722a3daafe3b4186f6b6457e09190a35050565b6001546040516340c10f1960e01b81526001600160a01b0384811660048301526024820192909252908216906340c10f1990604401600060405180830381600087803b1580156200078e57600080fd5b505af1158015620007a3573d6000803e3d6000fd5b505050505050565b610cc080620009ff83390190565b61132c80620016bf83390190565b600060208284031215620007da57600080fd5b81356001600160a01b0381168114620007f257600080fd5b9392505050565b634e487b7160e01b600052604160045260246000fd5b600082601f8301126200082157600080fd5b813567ffffffffffffffff808211156200083f576200083f620007f9565b604051601f8301601f19908116603f011681019082821181831017156200086a576200086a620007f9565b816040528381528660208588010111156200088457600080fd5b836020870160208301376000602085830101528094505050505092915050565b600080600060608486031215620008ba57600080fd5b833567ffffffffffffffff80821115620008d357600080fd5b620008e1878388016200080f565b94506020860135915080821115620008f857600080fd5b5062000907868287016200080f565b925050604084013590509250925092565b6000602082840312156200092b57600080fd5b5035919050565b60005b838110156200094f57818101518382015260200162000935565b50506000910152565b600081518084526200097281602086016020860162000932565b601f01601f19169290920160200192915050565b6040815260006200099b604083018562000958565b8281036020840152620009af818562000958565b95945050505050565b81810381811115620009da57634e487b7160e01b600052601160045260246000fd5b92915050565b60008251620009f481846020870162000932565b919091019291505056fe60806040523480156200001157600080fd5b5060405162000cc038038062000cc08339810160408190526200003491620001b1565b3382826003620000458382620002aa565b506004620000548282620002aa565b5050506001600160a01b0381166200008657604051631e4fbdf760e01b81526000600482015260240160405180910390fd5b62000091816200009a565b50505062000376565b600580546001600160a01b038381166001600160a01b0319831681179093556040519116919082907f8be0079c531659141344cd1fd0a4f28419497f9722a3daafe3b4186f6b6457e090600090a35050565b634e487b7160e01b600052604160045260246000fd5b600082601f8301126200011457600080fd5b81516001600160401b0380821115620001315762000131620000ec565b604051601f8301601f19908116603f011681019082821181831017156200015c576200015c620000ec565b816040528381526020925086838588010111156200017957600080fd5b600091505b838210156200019d57858201830151818301840152908201906200017e565b600093810190920192909252949350505050565b60008060408385031215620001c557600080fd5b82516001600160401b0380821115620001dd57600080fd5b620001eb8683870162000102565b935060208501519150808211156200020257600080fd5b50620002118582860162000102565b9150509250929050565b600181811c908216806200023057607f821691505b6020821081036200025157634e487b7160e01b600052602260045260246000fd5b50919050565b601f821115620002a557600081815260208120601f850160051c81016020861015620002805750805b601f850160051c820191505b81811015620002a1578281556001016200028c565b5050505b505050565b81516001600160401b03811115620002c657620002c6620000ec565b620002de81620002d784546200021b565b8462000257565b602080601f831160018114620003165760008415620002fd5750858301515b600019600386901b1c1916600185901b178555620002a1565b600085815260208120601f198616915b82811015620003475788860151825594840194600190910190840162000326565b5085821015620003665787850151600019600388901b60f8161c191681555b5050505050600190811b01905550565b61093a80620003866000396000f3fe608060405234801561001057600080fd5b50600436106100ea5760003560e01c8063715018a61161008c5780639dc29fac116100665780639dc29fac146101cd578063a9059cbb146101e0578063dd62ed3e146101f3578063f2fde38b1461022c57600080fd5b8063715018a6146101a25780638da5cb5b146101aa57806395d89b41146101c557600080fd5b806323b872dd116100c857806323b872dd14610142578063313ce5671461015557806340c10f191461016457806370a082311461017957600080fd5b806306fdde03146100ef578063095ea7b31461010d57806318160ddd14610130575b600080fd5b6100f761023f565b6040516101049190610784565b60405180910390f35b61012061011b3660046107ee565b6102d1565b6040519015158152602001610104565b6002545b604051908152602001610104565b610120610150366004610818565b6102eb565b60405160128152602001610104565b6101776101723660046107ee565b61030f565b005b610134610187366004610854565b6001600160a01b031660009081526020819052604090205490565b610177610325565b6005546040516001600160a01b039091168152602001610104565b6100f7610339565b6101776101db3660046107ee565b610348565b6101206101ee3660046107ee565b61035a565b610134610201366004610876565b6001600160a01b03918216600090815260016020908152604080832093909416825291909152205490565b61017761023a366004610854565b610368565b60606003805461024e906108a9565b80601f016020809104026020016040519081016040528092919081815260200182805461027a906108a9565b80156102c75780601f1061029c576101008083540402835291602001916102c7565b820191906000526020600020905b8154815290600101906020018083116102aa57829003601f168201915b5050505050905090565b6000336102df8185856103ab565b60019150505b92915050565b6000336102f98582856103bd565b61030485858561043b565b506001949350505050565b61031761049a565b61032182826104c7565b5050565b61032d61049a565b61033760006104fd565b565b60606004805461024e906108a9565b61035061049a565b610321828261054f565b6000336102df81858561043b565b61037061049a565b6001600160a01b03811661039f57604051631e4fbdf760e01b8152600060048201526024015b60405180910390fd5b6103a8816104fd565b50565b6103b88383836001610585565b505050565b6001600160a01b038381166000908152600160209081526040808320938616835292905220546000198114610435578181101561042657604051637dc7a0d960e11b81526001600160a01b03841660048201526024810182905260448101839052606401610396565b61043584848484036000610585565b50505050565b6001600160a01b03831661046557604051634b637e8f60e11b815260006004820152602401610396565b6001600160a01b03821661048f5760405163ec442f0560e01b815260006004820152602401610396565b6103b883838361065a565b6005546001600160a01b031633146103375760405163118cdaa760e01b8152336004820152602401610396565b6001600160a01b0382166104f15760405163ec442f0560e01b815260006004820152602401610396565b6103216000838361065a565b600580546001600160a01b038381166001600160a01b0319831681179093556040519116919082907f8be0079c531659141344cd1fd0a4f28419497f9722a3daafe3b4186f6b6457e090600090a35050565b6001600160a01b03821661057957604051634b637e8f60e11b815260006004820152602401610396565b6103218260008361065a565b6001600160a01b0384166105af5760405163e602df0560e01b815260006004820152602401610396565b6001600160a01b0383166105d957604051634a1406b160e11b815260006004820152602401610396565b6001600160a01b038085166000908152600160209081526040808320938716835292905220829055801561043557826001600160a01b0316846001600160a01b03167f8c5be1e5ebec7d5bd14f71427d1e84f3dd0314c0f7b2291e5b200ac8c7c3b9258460405161064c91815260200190565b60405180910390a350505050565b6001600160a01b03831661068557806002600082825461067a91906108e3565b909155506106f79050565b6001600160a01b038316600090815260208190526040902054818110156106d85760405163391434e360e21b81526001600160a01b03851660048201526024810182905260448101839052606401610396565b6001600160a01b03841660009081526020819052604090209082900390555b6001600160a01b03821661071357600280548290039055610732565b6001600160a01b03821660009081526020819052604090208054820190555b816001600160a01b0316836001600160a01b03167fddf252ad1be2c89b69c2b068fc378daa952ba7f163c4a11628f55a4df523b3ef8360405161077791815260200190565b60405180910390a3505050565b600060208083528351808285015260005b818110156107b157858101830151858201604001528201610795565b506000604082860101526040601f19601f8301168501019250505092915050565b80356001600160a01b03811681146107e957600080fd5b919050565b6000806040838503121561080157600080fd5b61080a836107d2565b946020939093013593505050565b60008060006060848603121561082d57600080fd5b610836846107d2565b9250610844602085016107d2565b9150604084013590509250925092565b60006020828403121561086657600080fd5b61086f826107d2565b9392505050565b6000806040838503121561088957600080fd5b610892836107d2565b91506108a0602084016107d2565b90509250929050565b600181811c908216806108bd57607f821691505b6020821081036108dd57634e487b7160e01b600052602260045260246000fd5b50919050565b808201808211156102e557634e487b7160e01b600052601160045260246000fdfea26469706673582212206b59b5cc60211bf1568267df96a0e9c1b82cec18bd52f04011abcdbacde8096764736f6c6343000814003360c06040523480156200001157600080fd5b506040516200132c3803806200132c83398101604081905262000034916200009b565b6001600160a01b0394851660805292841660a052600480549285166001600160a01b031993841617905560038054919094169116179091556000805460ff191660011790556002556200010f565b6001600160a01b03811681146200009857600080fd5b50565b600080600080600060a08688031215620000b457600080fd5b8551620000c18162000082565b6020870151909550620000d48162000082565b6040870151909450620000e78162000082565b6060870151909350620000fa8162000082565b80925050608086015190509295509295909350565b60805160a0516111b96200017360003960008181609d01528181610826015281816108d80152818161099a0152610b780152600081816101b0015281816103050152818161067d01528181610805015281816108b30152610a4001526111b96000f3fe6080604052600436106100865760003560e01c8063af31210e11610059578063af31210e14610134578063d21b181314610154578063d79875eb14610169578063d96a094a1461018b578063fc0c546a1461019e57600080fd5b80633fc8cef31461008b5780635104291c146100dc57806398d5fdca1461010a578063ae1582111461011f575b600080fd5b34801561009757600080fd5b506100bf7f000000000000000000000000000000000000000000000000000000000000000081565b6040516001600160a01b0390911681526020015b60405180910390f35b3480156100e857600080fd5b506100fc6100f7366004610dac565b6101d2565b6040519081526020016100d3565b34801561011657600080fd5b506100fc6101fe565b34801561012b57600080fd5b506002546100fc565b34801561014057600080fd5b506100fc61014f366004610dac565b61021b565b34801561016057600080fd5b506100fc610238565b34801561017557600080fd5b50610189610184366004610dc5565b610246565b005b610189610199366004610dac565b6104a3565b3480156101aa57600080fd5b506100bf7f000000000000000000000000000000000000000000000000000000000000000081565b60006101dc6101fe565b6101ee83670de0b6b3a7640000610dfd565b6101f89190610e2a565b92915050565b60006002546753444835ec5800006102169190610e2a565b905090565b6000670de0b6b3a764000061022e6101fe565b6101ee9084610dfd565b60006102166100f760025490565b60005460ff16610269576040516303eb92ed60e11b815260040160405180910390fd5b8160000361028a5760405163fae8279160e01b815260040160405180910390fd5b81600061029682610750565b905060006103e86102a883600a610dfd565b6102b29190610e2a565b905060006102c08284610e3e565b9050848310156102e3576040516320f0084360e11b815260040160405180910390fd5b6040516323b872dd60e01b8152336004820152306024820152604481018590527f00000000000000000000000000000000000000000000000000000000000000006001600160a01b0316906323b872dd906064016020604051808303816000875af1158015610356573d6000803e3d6000fd5b505050506040513d601f19601f8201168201806040525081019061037a9190610e51565b50826001600082825461038d9190610e3e565b9250508190555083600260008282546103a69190610e7a565b909155505033600090815260056020526040812080548692906103ca908490610e3e565b9091555050604051600090339083908381818185875af1925050503d8060008114610411576040519150601f19603f3d011682016040523d82523d6000602084013e610416565b606091505b505090508061045f5760405162461bcd60e51b815260206004820152601060248201526f7472616e73666572206661696c65642160801b60448201526064015b60405180910390fd5b604080518581526020810187905233917fed7a144fad14804d5c249145e3e0e2b63a9eb455b76aee5bc92d711e9bba3e4a910160405180910390a250505050505050565b60005460ff166104c6576040516303eb92ed60e11b815260040160405180910390fd5b346000036104e75760405163fae8279160e01b815260040160405180910390fd5b60006103e86104f734600a610dfd565b6105019190610e2a565b9050600061050f8234610e3e565b9050600061051c82610764565b336000908152600560205260409020549091506a18d0bf423c03d8de00000090610547908390610e7a565b11156105885760405162461bcd60e51b815260206004820152601060248201526f42616c616e6365204f766572666c6f7760801b6044820152606401610456565b8060025410156105ec5760405162461bcd60e51b815260206004820152602960248201527f546f6b656e20416d6f756e742047726561746572207468616e20617661696c61604482015268313632902a37b5b2b760b91b6064820152608401610456565b8381101561060d576040516320f0084360e11b815260040160405180910390fd5b346001600082825461061f9190610e7a565b9250508190555080600260008282546106389190610e3e565b9091555050336000908152600560205260408120805483929061065c908490610e7a565b909155505060405163a9059cbb60e01b8152336004820152602481018290527f00000000000000000000000000000000000000000000000000000000000000006001600160a01b03169063a9059cbb906044016020604051808303816000875af11580156106ce573d6000803e3d6000fd5b505050506040513d601f19601f820116820180604052508101906106f29190610e51565b50604080518381526020810183905233917f1cbc5ab135991bd2b6a4b034a04aa2aa086dac1371cb9b16b8b5e2ed6b036bed910160405180910390a260025460000361074a576000805460ff1916905561074a610778565b50505050565b600061075a6101fe565b6101f89083610dfd565b600061076e6101fe565b6101f89083610e2a565b6753444835ec5800004710156107df5760405162461bcd60e51b815260206004820152602660248201527f496e73756666696369656e742062616c616e636520746f2061646420746f205560448201526506e69737761760d41b6064820152608401610456565b6107f0674563918244f40000610b76565b60035460009061084d906001600160a01b03167f00000000000000000000000000000000000000000000000000000000000000007f00000000000000000000000000000000000000000000000000000000000000006101f4610bed565b9050600061086e6aa56fa5b99019a5c8000000674563918244f40000610e8d565b90506000606061087d83610c79565b610888906002610eb3565b6108929190611004565b905061089e8382610ce4565b60408051610160810182526001600160a01b037f0000000000000000000000000000000000000000000000000000000000000000811682527f00000000000000000000000000000000000000000000000000000000000000001660208201526101f491810191909152620d89e7196060820152620d89e860808201526aa56fa5b99019a5c800000060a0820152674563918244f4000060c0820152600060e08201819052610100820181905230610120830152906101408101610962426064610e7a565b90526004805460405163095ea7b360e01b81526001600160a01b0391821692810192909252674563918244f4000060248301529192507f00000000000000000000000000000000000000000000000000000000000000009091169063095ea7b3906044016020604051808303816000875af11580156109e5573d6000803e3d6000fd5b505050506040513d601f19601f82011682018060405250810190610a099190610e51565b506004805460405163095ea7b360e01b81526001600160a01b03918216928101929092526aa56fa5b99019a5c800000060248301527f0000000000000000000000000000000000000000000000000000000000000000169063095ea7b3906044016020604051808303816000875af1158015610a89573d6000803e3d6000fd5b505050506040513d601f19601f82011682018060405250810190610aad9190610e51565b50600454600090610ac7906001600160a01b031683610d27565b5050600480546040516323b872dd60e01b8152309281019290925260006024830152604482018490529293506001600160a01b03909216916323b872dd9150606401600060405180830381600087803b158015610b2357600080fd5b505af1158015610b37573d6000803e3d6000fd5b50506040516001600160a01b03881692507f2b1e37bc1165bf219bf005c57b4bd9edeac92a5690bbe16bafacb65f508ebfea9150600090a25050505050565b7f00000000000000000000000000000000000000000000000000000000000000006001600160a01b031663d0e30db0826040518263ffffffff1660e01b81526004016000604051808303818588803b158015610bd157600080fd5b505af1158015610be5573d6000803e3d6000fd5b505050505050565b60405163a167129560e01b81526001600160a01b038481166004830152838116602483015262ffffff831660448301526000919086169063a1671295906064016020604051808303816000875af1158015610c4c573d6000803e3d6000fd5b505050506040513d601f19601f82011682018060405250810190610c70919061101c565b95945050505050565b6000806002610c89846001611045565b610c939190610e8d565b90508291505b816001600160a01b0316816001600160a01b03161015610cde57905080600281610cc38186610e8d565b610ccd9190611045565b610cd79190610e8d565b9050610c99565b50919050565b60405163f637731d60e01b81526001600160a01b03828116600483015283169063f637731d90602401600060405180830381600087803b158015610bd157600080fd5b600080600080856001600160a01b03166388316456866040518263ffffffff1660e01b8152600401610d59919061106c565b6080604051808303816000875af1158015610d78573d6000803e3d6000fd5b505050506040513d601f19601f82011682018060405250810190610d9c9190611130565b9299919850965090945092505050565b600060208284031215610dbe57600080fd5b5035919050565b60008060408385031215610dd857600080fd5b50508035926020909101359150565b634e487b7160e01b600052601160045260246000fd5b80820281158282048414176101f8576101f8610de7565b634e487b7160e01b600052601260045260246000fd5b600082610e3957610e39610e14565b500490565b818103818111156101f8576101f8610de7565b600060208284031215610e6357600080fd5b81518015158114610e7357600080fd5b9392505050565b808201808211156101f8576101f8610de7565b60006001600160a01b0383811680610ea757610ea7610e14565b92169190910492915050565b6001600160a01b03828116828216818102831692918115828504821417610edc57610edc610de7565b50505092915050565b600181815b80851115610f26576001600160a01b03829004821115610f0c57610f0c610de7565b80851615610f1957918102915b93841c9390800290610eea565b509250929050565b600082610f3d575060016101f8565b81610f4a575060006101f8565b8160018114610f605760028114610f6a57610f9e565b60019150506101f8565b60ff841115610f7b57610f7b610de7565b6001841b91506001600160a01b03821115610f9857610f98610de7565b506101f8565b5060208310610133831016604e8410600b8410161715610fd8575081810a6001600160a01b03811115610fd357610fd3610de7565b6101f8565b610fe28383610ee5565b6001600160a01b03819004821115610ffc57610ffc610de7565b029392505050565b6000610e7360ff84166001600160a01b038416610f2e565b60006020828403121561102e57600080fd5b81516001600160a01b0381168114610e7357600080fd5b6001600160a01b0381811683821601908082111561106557611065610de7565b5092915050565b81516001600160a01b031681526101608101602083015161109860208401826001600160a01b03169052565b5060408301516110af604084018262ffffff169052565b5060608301516110c4606084018260020b9052565b5060808301516110d9608084018260020b9052565b5060a083015160a083015260c083015160c083015260e083015160e08301526101008084015181840152506101208084015161111f828501826001600160a01b03169052565b505061014092830151919092015290565b6000806000806080858703121561114657600080fd5b8451935060208501516fffffffffffffffffffffffffffffffff8116811461116d57600080fd5b604086015160609096015194979096509250505056fea2646970667358221220cc3038a509e819db80b4ca0ff7811b41aa67427e277cbf130423892c0f1c2d9464736f6c63430008140033a2646970667358221220a3033049048c336b1ccfc0ae7c027b608796daaa35c8201a8a34f3b440c1fdbe64736f6c63430008140033",
    "linkReferences": {}
  },
  "methodIdentifiers": {
    "CREATION_FEE()": "49a2104d",
    "allPairsLength()": "574f2ba3",
    "createTokensAndPair(string,string,uint256)": "be06b1a4",
    "feeToSetter()": "094b7415",
    "getPumpTokenPair(address)": "61c77972",
    "owner()": "8da5cb5b",
    "renounceOwnership()": "715018a6",
    "setCreationFeeSetter(address)": "6bdd1264",
    "setCreationFeeTo(uint256)": "ca9991b8",
    "transferOwnership(address)": "f2fde38b",
    "withdrawFees()": "476343ee"
  },
  "id": 28
}